:1000000040150020150C0000493E0000E90B0000DF
:10001000E90B0000E90B0000E90B00000000000004
:10002000000000000000000000000000F5070000D4
:10003000E90B00000000000091070000E90B000040
:10004000B1080000B1080000B1080000B1080000CC
:10005000B1080000B1080000B1080000B1080000BC
:10006000B1080000B1080000B1080000B1080000AC
:10007000B1080000B1080000B1080000B10800009C
:10008000B1080000B1080000B1080000B10800008C
:10009000B1080000B1080000B1080000B10800007C
:1000A000B1080000B1080000B1080000B10800006C
:1000B000B1080000B1080000B1080000B10800005C
:1000C000B1080000B1080000B1080000B10800004C
:0C00D000B1080000B1080000B1080000F9
:1000DC0053B94AB9002908BF00281CBF4FF0FF31A3
:1000EC004FF0FF3000F00CB8ADF1080C6DE904CE08
:1000FC0000F008F8DDF804E0DDE9022304B07047F5
:10010C00704700BF2DE9F04786468C460846089E8E
:10011C00154674461946002B40F0C2808542B2FA4F
:10012C0082F245D94AB1C2F1200300FA02FC2EFA40
:10013C0003F3954043EA0C0C94404FEA154EA8B2D9
:10014C00BCFBFEF8230C0EFB18CC08FB00F943EAB1
:10015C000C43994528D9EB1808F1FF3704D299457F
:10016C0002D9A8F102072B44A3EB0903A4B2B3FBF9
:10017C00FEFC0EFB1C330CFB00F044EA0344A042D3
:10018C0014D92C190CF1FF3304D2A04202D9ACF1D2
:10019C0002032C44241A43EA07401EB1D440002326
:1001AC0034607360BDE8F0874746DDE76346F1E7EE
:1001BC0092BB431B01214FEA154EAFB2B3FBFEFCC1
:1001CC00200C0EFB1C330CFB07F840EA034398454C
:1001DC0062D9EB180CF1FF3004D2984502D9ACF17E
:1001EC0002002B44A3EB0803A4B2B3FBFEFC0EFBF2
:1001FC001C330CFB07F744EA0344A7424ED92C19D5
:10020C000CF1FF3304D2A74202D9ACF102032C4407
:10021C00E41B43EA0040C0E7C2F1200320FA03F1DB
:10022C00954090402EFA03F303434FEA154EAFB2BC
:10023C00B1FBFEFC0EFB1C10190C0CFB07F841EA81
:10024C000041884504FA02F422D969180CF1FF30F8
:10025C0004D2884502D9ACF102002944A1EB080173
:10026C009BB2B1FBFEFC0EFB1C110CFB07F743EA27
:10027C0001439F420ED9EB180CF1FF3104D29F427F
:10028C0002D9ACF102012B44DB1B41EA004192E79D
:10029C006046E3E76146F7E76046A3E76346B7E7E6
:1002AC00834206D916B9002108467BE7C6E900E06F
:1002BC00F9E7B3FA83F78FB9834201D3724508D8B3
:1002CC00BEEB020460EB030301209C461EB9002127
:1002DC0068E73846FAE7C6E9004CF8E7C7F1200CA6
:1002EC00BB4022FA0CF41C432EFA0CF120FA0CF34E
:1002FC00B84001434FEA14490EFA07F5B3FBF9F87D
:10030C001FFA84FE09FB18300B0C08FB0EFA43EAAB
:10031C0000439A4502FA07F240D9E31808F1FF307E
:10032C0004D29A4502D9A8F102002344A3EB0A0394
:10033C0089B2B3FBF9F809FB183308FB0EFE41EA4E
:10034C0003418E452CD9611808F1FF3304D28E4538
:10035C0002D9A8F10203214443EA0040A0FB029811
:10036C00A1EB0E014145CE46434602D306D14D4585
:10037C0004D2B9EB020E68EB04030138002EA6D0B0
:10038C00B5EB0E0261EB030101FA0CFC22FA07F348
:10039C004CEA0303F940C6E9003198E74046C5E74B
:1003AC004346D9E710B5084C0921084603F0E8FB91
:1003BC00092203461146204603F0E6FB00214FF4C8
:1003CC00004002F0B5FFEFE7D4470000014B1B687B
:1003DC00184700BF00000020014B1860704700BF99
:1003EC000000002030B585B004460D4610220021D7
:1003FC00684604F04DF802238DF802302A46044B6F
:10040C0001932146684603F073F905B030BD00BF77
:10041C00D903000080B505460E461746984602F0F3
:10042C00A1FF034604F03CF8DFF81890044649F8A5
:10043C000030424630463946A84754F8090000F0CF
:10044C0063FC00BF080000002DE9F047058B044653
:10045C002807904611D4022905F0070540F0CD80FD
:10046C00204603F007FC78B10138218B042811D801
:10047C00DFE800F0C3106D85950001290CBF45F035
:10048C00100545F02005258388F31188BFF36F8F85
:10049C00BDE8F08701F0070AAA4500F0A680002706
:1004AC00B9463E46A368002B00F0BD8041F0080120
:1004BC00218388F31188BFF36F8FA168002900F0A6
:1004CC00BB800D68002900F0B780D1F8048033465A
:1004DC0052462046C047002D76D02B6829461D4633
:1004EC00F0E701F007035A1F012A1BD8002221F064
:1004FC000701062B276889B2C4E9002209D13B46C3
:10050C0003E0628B013262831B68002BF9D141F04E
:10051C0002012183204603F0ADFB00287BD041F083
:10052C00200177E0042B0AD121F0070189B2218345
:10053C00204603F09FFB10B141F020012183218B59
:10054C0001F0070AAA4550D00027B946AAE723694B
:10055C0021F0070141F00601062DD3F8009021830C
:10056C002DD1B9F1000F40D041F00801218388F35F
:10057C001188BFF36F8F3A492046C84729E021F014
:10058C000701236941F0040189B2042DD3F80490CA
:10059C002183E6D000273E464FF0040A82E721F083
:1005AC000701236941F0050189B2052DD3F80890A4
:1005BC002183D6D000273E464FF0050A72E700276C
:1005CC003E464FF0060A6DE72B4687E7B9F1000F60
:1005DC00D1D14FF02003EFF3118883F31288BFF3CE
:1005EC006F8F238B23F008032383258BEA062ED5EC
:1005FC0025F01003238305F007056669218B002E77
:10060C00BFF66FAF00232768C4E9003321F0070160
:10061C0041F001012183218B01F0070AAA454FF01B
:10062C0000097FF43FAF002F9BD041F008012183DC
:10063C0088F31188BFF36F8F002FC7D03D68394600
:10064C0033465246204603F041FB2F46F4E7AB06F7
:10065C007FF51AAF25F02003238305F00705FFE68D
:10066C00053D000001F0BCBB014910220A60704737
:10067C0010ED00E072B6404080F31188BFF36F8F2D
:10068C00BFF34F8F30BF62B6BFF36F8F704700BFA1
:10069C0072B6494081F31188BFF34F8F20BF80F3AE
:1006AC00118862B6704700BF40B2002807DB044ACD
:1006BC004109012300F01F00834042F821307047AC
:1006CC0000E100E0054B420900F01F0053F8222026
:1006DC00012303FA00F01040704700BF00E100E076
:1006EC0040B20028A8BF00F1604001F10101B8BF81
:1006FC00064B4FEA4111ACBF00F5614000F00F0012
:10070C00C9B2B4BF195480F80013704714ED00E05F
:10071C0030BFFFF7FDBF00BF0B4A08B50B4B22F0F3
:10072C007F029A60BFF34F8FBFF36F8FD3F888208F
:10073C0022F47002C3F8882002F0D6F902F078FE99
:10074C0000F056FA02F022FA0000000000ED00E082
:10075C00094A0A49936809689967094958674B68B7
:10076C0043F080534B60002383F31188BFF36F8FEA
:10077C009368986F704700BF28030020B8470000AB
:10078C0000ED00E015498A684FF030001044EFF39B
:10079C00098C80E8F01F202080F31288BFF36F8F44
:1007AC000F4F4FF000664A698A603E604FF070044C
:1007BC00141920680B4C2060506F0023536780F392
:1007CC00118804B5104600F0C1FABDE8044002F1EE
:1007DC00300090E8F01F8CF3098870472803002044
:1007EC0004ED00E0E00100201EF0040F0CBFEFF35D
:1007FC000880EFF30980816911F8021C0229FFD0EF
:10080C0001B503F013FB01BD42F8203C009B42F8FC
:10081C001C3C0A49019B42F8183C029B42F8143CD0
:10082C0021F001014FF0807342F8043C42F8081C9F
:10083C000023203A02654367704700BF2104000083
:10084C00094A0346906870B113F1160F006E05D07B
:10085C00A0F140029A4205D8834203D2814228BFBC
:10086C0000207047002070472803002008B514466C
:10087C000A4A0B4B9060026F1A600D4600F066FA44
:10088C00204685F30988002163B681F31188BFF3F4
:10089C006F8F00220023FFF7BDFD00BF280300204F
:1008AC00E001002001B5EFF30580A0F110004FEA44
:1008BC00C0000449014409C99847BDE801400249F8
:1008CC00084700003C45000035090000114B124A56
:1008DC002DE9F041D518DFF84480013DB5FBF3F567
:1008EC005D430F4B08EB0304013CB4FBF3F403FB37
:1008FC0004540E1B07460B49304603F0BBFD701920
:10090C0042460021083E03F0C3FD3E6704F1080097
:10091C00BDE8F081010000000000000004000000B0
:10092C0004000000C4460000044B996858698842D2
:10093C0003D003494FF080520A607047280300200F
:10094C0004ED00E070B5264B15469A6A12F0100FB4
:10095C009A6A14BF1124102412F0080F9A6A18BF57
:10096C001224920706460AD5586B9A6A140634D597
:10097C0019B19A6A22F080029A62132401E06FF096
:10098C001500174B9A6A12F0010F9A6A18BF1424BB
:10099C0012F0200F9A6A18BF1524D20602D49B6A53
:1009AC009B070AD50E4B5B68190506D53146FFF738
:1009BC0047FF10B180F309880224094B9A6A92060A
:1009CC0042BF5A6A22F400525A629A6A42F0FF02FB
:1009DC009A6200232B70204670BD6FF01500CCE797
:1009EC0000ED00E0134B9A6A12F0007F9A6A14BF74
:1009FC001E201D2012F0807F9A6A18BF1F2012F44F
:100A0C00002F9A6A18BF212012F4802F9A6A18BFFF
:100A1C00222012F4003F9A6A18BF232012F4803F60
:100A2C009A6A6FEA02426FEA12429A6218BF242055
:100A3C00704700BF00ED00E010B5194B0246986AF4
:100A4C009C6A10F4805F14BF1720162014F4006FFA
:100A5C009C6A18BF1820A40509D5986B986A0004E5
:100A6C0004D51AB19A6A22F400429A6219200C4BEE
:100A7C009A6A12F4806F9A6A18BF1A20D2050CD4A5
:100A8C009B6A13F4005F18BF1C20054A936A43F459
:100A9C007F43936200230B7010BD1B20F5E700BF52
:100AAC0000ED00E0F0B5484B5B688BB00446C3F337
:100ABC000803002585F31188BFF36F8F02F07F4088
:100ACC00B0F17F4F11D102F00C0008280DD01007A7
:100ADC004CBF0C4601250022033B8DF80720032B4D
:100AEC0005D8DFE803F0246367602C46F3E70023A6
:100AFC009DF80720CAB902AE04F12007206861688E
:100B0C00324603C20834BC421646F7D1099A002D6E
:100B1C0054D0C2F3080121B96FEA52226FEA422283
:100B2C00099202A9184603F07FF90BB0F0BD264BD1
:100B3C00DA6A9107DBD4DA6A002AD8DBDA6A520067
:100B4C00D5D55A69A16942F480725A61BFF34F8FAF
:100B5C00BFF36F8F5A6931F8021C22F480725A610C
:100B6C00BFF34F8FBFF36F8F4DF6027291420AD0D5
:100B7C009A6AD2B24AB10DF1070201212046FFF761
:100B8C00E1FE0346B4E72368B2E79A6A12F47F4F9A
:100B9C0005D00DF107010120FFF74EFFF1E79B6A2D
:100BAC00B3F5803FA3D3FFF71DFFEAE70DF1070272
:100BBC000021E3E70DF107010020EDE722F4FF72BD
:100BCC0022F00102ACE700BF00ED00E0024A5369DD
:100BDC0043F010035361704700ED00E0EFF3088021
:100BEC00EFF3098101B57246FFF75CFF01BD00BF51
:100BFC00044800232021C2180133272B82F800134C
:100C0C00F9D1704700E100E0002080F31488BFF3B5
:100C1C006F8FFFF727FD00200D490860BFF34F8F42
:100C2C000C4880F3088800F03DF8202080F31188F0
:100C3C0009484FF40461401880F30988EFF31480DD
:100C4C000221084380F31488BFF36F8FFFF764FD14
:100C5C0094ED00E04015002080070020BFF34F8F7B
:100C6C000549064BCA6802F4E0621343CB60BFF33C
:100C7C004F8F00BFFDE700BF00ED00E00400FA0558
:100C8C000749D1F890200023C2F30722184693425B
:100C9C0000DB7047C1F89830C1F8A0000133F6E7CB
:100CAC0000ED00E008B572B6002383F31388FFF75C
:100CBC00E7FF144B4FF0FF32C3F88020C3F88420B9
:100CCC00C3F88820C3F88C20C3F89020C3F8942074
:100CDC00C3F89820C3F89C20C3F88021C3F8842162
:100CEC00C3F88821C3F88C21C3F89021C3F8942150
:100CFC00C3F89821C3F89C2162B6BFF34F8FBFF3A2
:100D0C006F8F08BD00E100E0084B9B6883420BD15C
:100D1C00EFF3058343B1064B5A6842F080525A6098
:100D2C005A6A22F400425A6202F022BB28030020C5
:100D3C0000ED00E0024B034A0348012100F070B8BB
:100D4C000000012000000020D8460000026E054B78
:100D5C00403A1A60044A4021C3E9011218460121A5
:100D6C0000F068B8E401002000000B15F0B5204E2F
:100D7C0000258D4239DA446874B353B104F1FF3C59
:100D8C0014EA0C0F2FD11F2C2DD907681CEA070F62
:100D9C0029D1202C0768D0F808C05FFA82FE1ED932
:100DAC00B4F1004F1DD8013CB4FA84F4C4F11F0413
:100DBC006400BEF1070F4CEA040C14D827F01F0492
:100DCC00144344F01004C6F89820C6F89C404CF02C
:100DDC000104C6F8A040013201350C30C9E70824E3
:100DEC00E7E73E24E5E76FF015021046F0BD00BFC3
:100DFC0000ED00E0044B0522C3F89420BFF34F8FA5
:100E0C00BFF36F8F704700BF00ED00E0BFF35F8F43
:100E1C00024B0022C3F89420704700BF00ED00E0A5
:100E2C0010B5034C01232278FFF7A0FF207010BDF2
:100E3C005803002008B5094A00231278FFF796FFE3
:100E4C0010F1160F02D0064A072800DD08BDC2F8C3
:100E5C009800C2F8A0300130F6E700BF580300201C
:100E6C0000ED00E014490868082810B521D8FFF7F8
:100E7C00CDFF124C49680022904201F10C0105D1C2
:100E8C000F4B1870FFF7B6FF002010BDC4F8982068
:100E9C0051F80C3C23F01F03134343F01003C4F828
:100EAC009C3051F8043C43F00103C4F8A0300132EB
:100EBC00E2E74FF0FF30E8E7E446000000ED00E029
:100ECC005803002008B5024B1B689847002008BD4A
:100EDC00F0010020034B044A1860937843F002039E
:100EEC0093707047F00100200400002008B50649FB
:100EFC00064821F00701C1F1005202F5803202F0E0
:100F0C007CFE002008BD00BF93150020801500203A
:100F1C00044A0123C2F840354FF080420020C2F849
:100F2C007835704700E0014020B1034B800143F05D
:100F3C0001031847704700BFD0460000084B70B53E
:100F4C00C31A0D4607499B100446594306484022D4
:100F5C0002F09CFF2B4601462046BDE87040184726
:100F6C0008020020B76DDBB60045000073B50C4CD1
:100F7C000C4A4023041B00930D460B460A49A4104F
:100F8C0061430646094802F0AEFF011E05DA304601
:100F9C002B4602B0BDE87040184702B070BD00BFD0
:100FAC00080200205F3F0000B76DDBB60045000073
:100FBC0010B54FF02003EFF3118483F31288BFF3C5
:100FCC006F8F074A136823F00201DB07116002D40C
:100FDC00012003F0D9F884F31188BFF36F8F10BD93
:100FEC0058020020002270B5012104461046FFF77C
:100FFC0077FB0F4801F0DCF80E4B984215D103F04B
:10100C00B6F826690C49304602F084FE00280BDB4A
:10101C00012535642469084904F11C0002F07AFEAC
:10102C00002801DBE564002070BD6FF00400FBE7D5
:10103C007D1000000000AD0B0447000070B50146A8
:10104C000C2309484B43C418D4E90E5640330022F4
:10105C001844A26302F007FF2DB132462B46034819
:10106C00BDE87040184770BD080200200045000024
:10107C0010B1012804D07047034B1B6C5B0701D1E6
:10108C00FFF7DCBF704700BF0802002008B54FF027
:10109C002003EFF3118183F31288BFF36F8F124A91
:1010AC00136843F002001060DA0708D481F311884A
:1010BC00BFF36F8F0120BDE8084001F089B84FF0F5
:1010CC008043D3F80C24D3F80C34DB07EED5074857
:1010DC0002F0C9FE81F31188BFF36F8F0020BDE8C9
:1010EC000840FFF7ABBF00BF5802002048020020A9
:1010FC001FB500220123CDE90223094ACDF800D007
:10110C006B46CDF804D002F01DFF002805DB4FF430
:10111C0080420023684601F067FE05B05DF804FBD1
:10112C00773F000010B5074C23782BB94FF4A5700E
:10113C0003F095F801232370BDE81040002001F066
:10114C0047B800BF590300202DE9F0413849BFF3DF
:10115C005B8F0746012251E8003F41E80020002840
:10116C00F9D1BFF35B8F33B9324933484B60CB6055
:10117C008A6002F0E2FD7B1E012B2BD8012F07D1D8
:10118C004FF08043D3F81C3403F00303012B21D020
:10119C0003F079F80546F8B9284B1B78E3B14FF00A
:1011AC0080430222C3F808230646DFF894804FF0F0
:1011BC008044D4F81824D4F81834D20316D503F08C
:1011CC000303012B01D0012F10D15DB386F31188DD
:1011DC00BFF36F8FBDE8F0814FF02003EFF3118662
:1011EC0083F31288BFF36F8F0125DEE7ADB1304674
:1011FC00FFF74EFAD4F81835002BDAD1D4F80421C5
:10120C00002AD6D0C4F80431D4F804310123C4F830
:10121C001835C8F88031A360CBE70021212002F0FB
:10122C0087F8E7E74FF080430222C3F80423D1E7A5
:10123C0004020020F4010020240200206C0700208E
:10124C0000E100E008B5074803F00EF838B1064895
:10125C00FFF740FE0448FFF7BFF8002008BD6FF011
:10126C001200FBE728450000791200000A2838B567
:10127C00074D044604D1AB680D215B68284698479E
:10128C00AB6803485B68E1B29847204638BD00BFA5
:10129C002845000030B54068057B01F01F04B2F50D
:1012AC00001F85B044EA451405D1204601F078FAB8
:1012BC00002005B030BD0025B2F5800FCDE90255F8
:1012CC0014D1B3F1007F0CBF042305238DF8083033
:1012DC000023194602AA204601F096F8214B9842A9
:1012EC0039D10121204601F00FFAE1E7B3F1C06FCB
:1012FC0026D0B3F1007F14BF012302238DF80830F0
:10130C00836823FA01F111F00101E1D1B2F1A07F60
:10131C00DED104F01F03620903F5E0731ED14FF018
:10132C00A04252F82330DB07D2D40DF10705294631
:10133C00204601F095F90C4B984203D00395C7E772
:10134C000323DBE7284601F0D9F9064B9842F5D088
:10135C006FF00B00ADE76FF01500AAE751F82330E2
:10136C00FFDE00BF0000AD0B0400AD0B10B501F0AB
:10137C00B5F9044668B901F089F9084B98420AD1CD
:10138C000748214601F066F9224605210620FFF7A1
:10139C00A7F9002010BD6FF00400FBE70000AD0BB7
:1013AC00B1130000430970B507D10B4B596821B13B
:1013BC0001250C68094E854001B970BD8A682A4028
:1013CC0002D04B68304698471CB1236821461C4616
:1013DC00F2E72346FAE700BF5C0200201445000048
:1013EC002DE9FF4147683B7B01F01F0545EA43159A
:1013FC000E4628460DF10701144601F031F914F49C
:10140C00403F80460DD1284601F0F0F93D4B984500
:10141C0003D19DF8070001F06BF9002004B0BDE882
:10142C00F0810023194602AA2846CDE9023300F0C8
:10143C00EBFF344B984214D1804503D19DF8070043
:10144C0001F056F9A3034ED540F206332340B3F511
:10145C00837F1AD00DD8062B18D005D8B3B1022B28
:10146C0033D06FF01500D9E7B3F5807FF9D10123A4
:10147C000CE040F20222934229D0B3F5407F28D0F1
:10148C00B3F5007FEDD1022300E007238DF808307F
:10149C0084F48033C3F30043E0068DF8093054BF65
:1014AC00C4F34013032321038DF80A3013D57A6853
:1014BC000123B340C2F80835002202A9284601F0E6
:1014CC0053F8104B9842A8D0CBE70423DEE7052352
:1014DC00DCE70323DAE7620341BF01237A68B340F8
:1014EC00C2F80C35E8E7E3064FF0000354BFC4F331
:1014FC00401403241A4602A928468DF8084000F02F
:10150C0083FFDEE70000AD0BF0B5524D00EB81011F
:10151C00814201D10020F0BD046804F07F03C4F3C4
:10152C0043267F2B4FEA144408BF4FF0FF33192C8E
:10153C007ED8DFE804F00D13191C1F251C7D7D7D62
:10154C007D345D7D7D7D7D7D7D7D7D7D6074777A57
:10155C00C2F80C355F1C57D10430D9E7C2F81435EA
:10156C005C1CF9D0002458E0C2F80835F2E7C2F848
:10157C001035F5E75F1CC2F80835EDD0002404E007
:10158C005C1CC2F80C35E7D001245F0953D101274C
:10159C004FF0A04C07FA03FECCF80CE508E0C2F8BB
:1015AC000835002EDCD15C1CD6D00024274606263C
:1015BC00D0F800E00EF4005CBCF1000F1CBF01245D
:1015CC00002703F01F0C5B093DD14FEA8C0C0CF18A
:1015DC00A04CCEF3C11EDCF800372B4043EA8E033F
:1015EC0043EA06233B4343EA4403CCF80037B3E712
:1015FC00C2F80C35D5E7C2F860355F1C0468ABD077
:10160C00C4F38034002CBFD05C0918D101244FF0F6
:10161C00A04704FA03FCC7F808C52746C8E7C2F878
:10162C006435EAE7C2F86835E7E7C2F86C35E4E7F9
:10163C006FF085006FE70023C3F80C35FFDE002345
:10164C00C3F80835FAE70CF5E07C002353F82C308E
:10165C00F4E700BFF0F8FCFF70B54B79012B20D1FB
:10166C008B79032B1DD1CD790DB1012D19D10A79AF
:10167C0012B1022A15D10E220B684468B3F5164F2D
:10168C00266864D02BD8B3F5165F63D014D8B3F5A5
:10169C00966F61D008D8B3F5967F60D0B3F5167FFE
:1016AC0060D06FF0850051E0B3F5166F5DD0B3F5E7
:1016BC00965FF6D1374B3CE0B3F5E14F58D007D8E5
:1016CC00B3F5615F56D0B3F5964FEAD1324B30E0AB
:1016DC0047F61224A342E4D14FF4000329E0B3F5FA
:1016EC00613F49D013D8B3F5963F48D009D84DF691
:1016FC00C024A34245D0B3F5614FD2D14FF46B0354
:10170C0017E0B3F5E13FCCD14FF0EB7311E0B3F53B
:10171C00612F39D008D8214CA34238D0B3F5E12F32
:10172C00BFD14FF0E86304E01D4CA342B9D14FF098
:10173C0080530469C6F8243543681B682A43C3F8F0
:10174C006C2503C9231D83E80300002070BD4FF4F2
:10175C001D03EEE7134BECE74FF49E23E9E74FF440
:10176C00A033E6E74FF41C33E3E74FF41D23E0E727
:10177C000D4BDEE70D4BDCE74FF06C73D9E70C4BF0
:10178C00D7E74FF46503D4E74FF07063D1E74FF020
:10179C008063CEE700B0130000A04E0090D0030091
:1017AC0040420F000050270000C0750000F03A00C6
:1017BC0000903A012DE9F7438046002201210220D6
:1017CC00FEF78EFF0220FEF76FFFD8F80470D8F8F2
:1017DC0010603C680021C4F80015C6F80080D7F8EA
:1017EC000C9001AA484602F018FC051E4CDB019B2C
:1017FC00D9F8002019791868FFF786FE051E43DB1F
:10180C00311D4046FFF728FF054600283CD17B6878
:10181C00990712D506F1180001F0D2F81E4B984228
:10182C0036D1307E04F10C0204F5907102F095FC77
:10183C00337E0120984000F053FC0823C4F8003597
:10184C003B7A53B9C4F81031D4F810317369C4F829
:10185C0034350123C4F8383523607B689A075CBFA4
:10186C004FF48073C4F804337B68DB0644BF4FF439
:10187C008003C4F804333369C4F844350023C4F836
:10188C0048350123A360E360284603B0BDE8F0832C
:10189C006FF00405F8E700BF0000AD0BF8B5044687
:1018AC0007690D4602F0EFFCB0B92E4B1B789BB1CB
:1018BC006426606802F0E7FB00BB012002F04BFCE1
:1018CC00013EF6D10021212001F032FDF0E786F334
:1018DC001188BFF36F8FF5E74FF02003EFF31186FC
:1018EC0083F31288BFF36F8F6068314602F0CBFB35
:1018FC0090B986F31188BFF36F8FEDE74FF020039B
:10190C00EFF3118683F31288BFF36F8F6068314653
:10191C0002F0B9FB0028DAD03B691D7062683869A7
:10192C001368C3F844050120C3F848050020C3F828
:10193C002001D3F82051C3F858015268D3F858014C
:10194C00D20608D5626812680820C2F800054FF468
:10195C008002C3F8042301229A6081F31188BFF33B
:10196C006F8FF8BD6C07002070B5012383400E4AC1
:10197C00BFF35B8FDC4352E8001F01EA040542E829
:10198C000056002EF7D1BFF35B8F4FF480328240AC
:10199C000648C0F80823BFF35F8FBFF36F8F0B426D
:1019AC0014BF0120002070BD6C020020001001400B
:1019BC0070B40E49D1E90034D01AC31844F10004B4
:1019CC0022F07F46C1E90034A6F50013B3F5400FB1
:1019DC0009D2074B1B681A0A1B069C19054B42F1CE
:1019EC000005C3E9004570BC01F0F8BDB000002053
:1019FC0070020020B800002011B3BFF35B8F0123ED
:101A0C00104A834052E800CF4CEA030C42E800C174
:101A1C000029F7D1BFF35B8F0B4A4FF4803383401F
:101A2C00C2F80433094BBFF35B8F1B68BFF35B8FAA
:101A3C00C340DB0742BF064B4FF40032C3F8002112
:101A4C00704700BF6C0200200010014068020020AB
:101A5C0000E100E00D4B1868010A0006BFF35F8F30
:101A6C000B4BD3F80435181841F10001B3F5801F66
:101A7C000AD2084BD3E90023904271EB030303D243
:101A8C0010F1807041F10001704700BF700200201E
:101A9C0000100140B80000202DE9F04F85B016462B
:101AAC001F469DF840A00446FFF75EFF0190FFF72C
:101ABC00D1FFB04271EB070354D23E4B301A67EBA7
:101ACC000101984271F100014FD23B4B03EB04131F
:101ADC00D3E902239F4208BF96425ED037494FF4A8
:101AEC00803804F1500508FA04F8AD00C1F84883B9
:101AFC002046ADB202F010FB26F07F4B05F180457D
:101B0C0004F5A87305F58835DC464FF003090293FC
:101B1C00029A2CF07F4341F82230C1F84483D1F86B
:101B2C000435274A6FF00200C01A604420F07F4051
:101B3C00904232D9286868B1D1F804350393A3EBED
:101B4C000B0020F07F40B0F5000F26D9204602F0A4
:101B5C00E3FA039BBAF1000F07D109EB030C09F16F
:101B6C000109D5E7BAF1000F09D06FF01505204631
:101B7C000199FFF741FF284605B0BDE8F08F01231E
:101B8C00104ABFF35B8FA34052E8000F184342E8A2
:101B9C0000010029F8D1BFF35B8F07490E98230190
:101BAC0001EB0412C8500F9B5360C2E90267002579
:101BBC00DDE700BF01008000A00000200010014004
:101BCC00FDFF7F00680200207FB51C4C1C4BC4F845
:101BDC000833C4F848331B4B00254FF0FF304FF04F
:101BEC00FF31C4F80855C3E902014FF48033C4F83F
:101BFC000433154B02264FF400320121C4F8046360
:101C0C001120C3F880212A46FEF76AFD1120FEF749
:101C1C004BFD0E4A0123A360236013600C4B0D4A4D
:101C2C000093CDE9015500232846FFF735FF3046D8
:101C3C00FFF78AFA284604B070BD00BF00100140BF
:101C4C0003000F00A000002000E100E06C02002067
:101C5C00BD190000FFFF7F002DE9F7432F4CD4F88E
:101C6C00043399070BD5D4F8043143B12C4A002323
:101C7C00C4F80431D4F80431136801331360D4F878
:101C8C000433DA032AD5BFF35B8F264B53E8002FBE
:101C9C0022F0010143E800100028F7D1BFF35B8F5D
:101CAC00D30702D4D4F84031C3B10025C4F8405155
:101CBC00D4F84031FFF7CEFE4FF02003EFF3118242
:101CCC0083F31288BFF36F8F174BD3E90267B042CF
:101CDC00B94106D282F31188BFF36F8F03B0BDE810
:101CEC00F0834FF0FF384FF0FF39C3E90289D3E995
:101CFC0000101D604FF48033C4F84833C4F84051D1
:101D0C00D4F8403182F31188BFF36F8F0029E5D0EE
:101D1C00009032463B4628468847DFE700100140DA
:101D2C007002002068020020A00000201FB5431C98
:101D3C0023D0012823DD134A134B9042D4BF044611
:101D4C001C46FFF787FE114B0F49D3E90023801A7D
:101D5C00B0F5000F28BF002404448C4228BF0C4669
:101D6C00A2180B4900914FF00000CDE9010043F19E
:101D7C000003FFF791FE04B010BD034CE1E7012412
:101D8C00DFE700BFFEFF7F00FFFF7F00B0000020F9
:101D9C00BD19000008B5FFF75DFE024B1B68C01AA9
:101DAC0008BD00BFB00000204FF0704393F8E02F47
:101DBC00062A09D1D3F8E83FC3F30313033B042BE2
:101DCC0002D8024AD05C7047002070477D48000062
:101DDC00024AD2F80034002BFBD0704700E00140DF
:101DEC0010B502F0A9F940B14FF080538E4AD3F8E8
:101DFC002433C3F30423C2F84035FFF7D5FF10B1E9
:101E0C008A4B8B4A5A6702F097F948B14FF08053CE
:101E1C004FF08042D3F84432C3F34233C2F83C351E
:101E2C00FFF7C2FF30B1834AD2F8FC3023F0807345
:101E3C00C2F8FC3002F080F940B14FF08043002230
:101E4C00C3F80C21C3F81021C3F83825FFF7ACFFF9
:101E5C0020B14FF080430322C3F8A025FFF7A4FF65
:101E6C0060B1754B0522C3F810260122C3F88826F1
:101E7C000022C3F818263F22C3F814264FF08053D3
:101E8C00D3F83021511C09BF4FF07043D3F83431D3
:101E9C0093F8E02FD3F8E83F08BFC3F30313062AE7
:101EAC004DD1033B042B03D8644AD35C002B46D0A2
:101EBC004FF08052624BD2F80414C3F82015D2F8BC
:101ECC000814C3F82415D2F80C14C3F82815D2F84A
:101EDC001014C3F82C15D2F81414C3F83015D2F81A
:101EEC001814C3F83415D2F81C14C3F84015D2F8E2
:101EFC002014C3F84415D2F82414C3F84815D2F8AA
:101F0C002814C3F84C15D2F82C14C3F85015D2F879
:101F1C003014C3F85415D2F83414C3F86015D2F841
:101F2C003814C3F86415D2F83C14C3F86815D2F809
:101F3C004014C3F86C15D2F84424C3F8702502F091
:101F4C00FBF848B14FF080534FF08042D3F8583231
:101F5C0003F04F03C2F8E43E02F0EEF848B14FF044
:101F6C008043D3F80024D20744BF6FF00102C3F8BA
:101F7C0000244FF08053D3F83021062A26D1D3F811
:101F8C003431033B042B02D82E4AD35C63B12E4A66
:101F9C00D2F83C3743F48063C2F83C374FF080539F
:101FAC00D3F83031062B11D14FF08053D3F83431A4
:101FBC00033B042B02D8254AD35C3BB14FF01023D2
:101FCC00D3F808224FF08043C3F858254FF0102364
:101FDC00D3F80022002A03DBD3F80432002B22DAD8
:101FEC001B4901234FF01020C1F804351524FFF7CD
:101FFC00EFFEC0F80042FFF7EBFEC0F80442FFF71B
:10200C00E7FE0023C1F80435FFF7E2FEBFF34F8F64
:10201C000849104BCA6802F4E0621343CB60BFF36B
:10202C004F8F00BFFDE710BD0030014000C00740DE
:10203C000DF0ADBA00ED00E0005000407848000013
:10204C0000C0004073480000001000406E480000C3
:10205C0000E001400400FA0530B50468CCB1BFF3D0
:10206C005B8FB4FA84F3C3F11F03DBB201229A40F5
:10207C0024EA020250E8005FA54204D140E8002C9B
:10208C00BCF1000FF6D1BFF35B8FE6D102480B70A9
:10209C0030BD0248FCE700BF0000AD0B0200AD0BE9
:1020AC0010B50368CB40DB0714D401238B400268C6
:1020BC00BFF35B8F43EA020150E8004F944204D116
:1020CC0040E8001CBCF1000FF6D1BFF35B8FEED1E2
:1020DC00014810BD0148FCE70000AD0B0400AD0B3E
:1020EC00014BC3F80405704700F00140F7B50446F6
:1020FC0018B1012823D003B0F0BD4FF08043022269
:10210C00C3F80823C3F80401D3F804210122DA60D0
:10211C00064601238DF8073042F210754FF08047C8
:10212C00D4B1012CE7D1D7F80C3403F48033AEBB17
:10213C0083B3012002F00FF8013DF4D12AE04FF0F7
:10214C0080430022C3F80803C3F80021D3F8002110
:10215C0058600DF10706DCE7D7F8183403F4803328
:10216C003EB9002BC7D0012001F0F5FF013DF3D1A2
:10217C00C1E7D7F8182402F003023260002BBAD062
:10218C009DF80700012803D101F0E5FF013DC7D1FF
:10219C00012CB0D1054B00225A71ACE7D7F80C24B6
:1021AC0002F001023270002BEAD1F3E77402002036
:1021BC00044B1A7922B9012218609A8002487047A0
:1021CC0002487047740200200000AD0B0C00AD0BF0
:1021DC0038B510B1012843D038BD4FF08042D2F849
:1021EC001814D2F81834C8032ED503F00303012BAE
:1021FC0004D013B10020FFF779FF00234FF0804289
:10220C00C2F818350023C2F80431D2F80431022385
:10221C00C2F80433184AD2F8FC0040F08073C2F8BC
:10222C00FC30164B1C6844F0010119605D6859685C
:10223C00491BB1F50A5FFAD31C604FF08043C2F81A
:10224C00FC0001229A60C7E7D2F81434D907D4D520
:10225C00D2F81C349B07CDD40223C2F80433BBE75D
:10226C004FF080430022C3F80021D3F80021C3F8BB
:10227C0004031860B0E700BF00ED00E0001000E0C0
:10228C0010B54FF08043D3F800216AB10022C3F897
:10229C000021D3F800210122C3F80823114B5879EF
:1022AC0010B95A711B6898474FF08043D3F804213A
:1022BC0072B10022C3F80421D3F80421D3F81824F6
:1022CC00D3F81824920704D10122C3F818259A6078
:1022DC0010BD0222C3F80823024BBDE810401B6856
:1022EC000120184774020020C0B2034B083033F8A9
:1022FC001000C0F34010704730000020C0B2034BF8
:10230C00083033F81000C0F3400070473000002054
:10231C00C0B2034B083033F81000400B704700BFBD
:10232C003000002070B500F108030C4C34F8133069
:10233C00DA0505460E4607D5C3F3432304EBC30267
:10234C0054F8333052689847A3682BB1E268314691
:10235C002846BDE87040184770BD00BF3000002013
:10236C0010B4C0B2114A083032F81030D9051BD560
:10237C00C3F3432123F4F85322F8103002F10E0476
:10238C00002034F8023F13F4807F03D0C3F34323BF
:10239C00994209D001302028F3D1002342F8313082
:1023AC00034810BCFFF77CBE10BC70473000002007
:1023BC0084000020F0B50146104A114C0020012584
:1023CC00064602F14043A3F5C2439B0805FA03F30A
:1023DC00194204D0176817B11660176818430432F5
:1023EC00A242EED1074BD3F87C2132B10022C3F8C4
:1023FC007C21D3F87C3140F00040F0BD00610040FE
:10240C002061004000600040F0B5044685B01746DE
:10241C001D4601B3FFF772FF18B12046FFF764FFAA
:10242C0008BB0023CDE900338DF80E308DF80F304A
:10243C000DF10F020B4620460DF10E0101F0B0FE1E
:10244C00E3B24449083331F8132022F0020242F07F
:10245C00010221F8132057B320463E787A68FFF723
:10246C004DFF10B1C2B13C4823E0E3B2DFF8E4C049
:10247C0008333CF8131021F02001C904C90C2CF8C6
:10248C0013104AB1032EEED87A6817789EB9334BE5
:10249C0007F5A27743F82760E3B22E49083331F8E9
:1024AC00132022F01C0242EA860221F813203DBBC5
:1024BC002B4805B0F0BDBA0002F1804202F5C042D3
:1024CC0041EA4731D2F8100520F00300C2F810059C
:1024DC00D2F8100520F4473020F44070C2F81005F3
:1024EC00D2F810E5200200F4F85040EA0E0040EA61
:1024FC00064041F020012CF81310C2F81005CBE770
:10250C00D5E900672046FFF72BFF002ED0D0114DE8
:10251C00D5E90023964201D19F4219D011480DF103
:10252C000F01FFF799FD0E4B9842C2D19DF80F2079
:10253C0045F83260E4B205EBC20308345F6035F84D
:10254C00143043EA422343F4807325F81430AFE788
:10255C000022EDE7300000200400AD0B00600040CD
:10256C000000AD0B84000020F0B5044685B0164683
:10257C0029B3FFF7C3FE20B92046FFF7B5FE0028AC
:10258C005FD1E5B2304F083537F8153013F01C0F1A
:10259C0002D04B78012B54D001238DF80F3000233F
:1025AC00CDE900134A1C8B1C20460DF10F0101F0E4
:1025BC00F7FD37F8153043F0030327F8153016B93B
:1025CC00224805B0F0BD2046FFF798FEC8B3E5B22F
:1025DC001D4F96F800C00835614637F81500890084
:1025EC0020F0200001F18041C00401F5C041C00C75
:1025FC0027F815000023C1F810357278002ADFD0B7
:10260C00D1F81035B67823F4981323F4F853C1F8A5
:10261C00103512042302D1F810E502F4403203F411
:10262C00F8531343320543EA0E0302F4801240EAD6
:10263C004C30134340F0200027F81500C1F810353A
:10264C00BEE70348BDE700BF300000200000AD0B23
:10265C000400AD0B014BC3E90201704730000020B0
:10266C0008B50246FFF740FE40B1D2B2044B054814
:10267C00083233F812305B0B0B7008BD0248FCE7D4
:10268C00300000200000AD0B0400AD0B70B50F4CFA
:10269C0094F85860BEB90E4D4022314604F110003A
:1026AC0001F0F6FEC5F87C610620D5F87C31FDF70B
:1026BC00FBFF4FF00043C5F804330648012384F8B0
:1026CC005830636570BD0448FCE700BF3000002043
:1026DC00006000400000AD0B0500AD0B034B93F800
:1026EC005800003818BF0120704700BF3000002090
:1026FC0001460148FFF7D4BC800000200146014888
:10270C00FFF7AABC8000002037B50446FFF7ECFDAC
:10271C0008B32046FFF7F2FD0546E0B92046FFF767
:10272C00F7FD03B29B0003F1804202F5C24203F1B4
:10273C00804303F5C04315601268D3F8102542F0AE
:10274C000102C3F8102521B1134A01238340C2F8BA
:10275C00043303B030BDE3B2104A083332F81330FF
:10276C00C3F38203042B12D0052B12D001A80194C1
:10277C0001F00CFD019BD0F81015D94001F00101BE
:10278C000231204603B0BDE8304001F052BD0321B8
:10279C00F7E70221F5E700BF0060004030000020A1
:1027AC0008B50246FFF7A0FDC0B11046FFF7A6FD25
:1027BC00A0B91046FFF7ACFD0B4A01238340C2F8C9
:1027CC00083303B29B0003F1804303F5C043D3F8F5
:1027DC00102522F00302C3F8102508BDBDE80840FF
:1027EC000021104601F025BD0060004073B5C5B254
:1027FC00174E0835044636F81530DB0726D5FFF79B
:10280C00CFFF2046FFF770FD40B12046FFF780FD5B
:10281C00104B00F5A270002243F820202046FFF751
:10282C009FFD002301A826F81530019401F0AEFCA1
:10283C00019B00EB8300084BD0F80027134043F0BA
:10284C000203C0F80037054802B070BD0448FBE72E
:10285C003000002000600040F0F8FCFF0000AD0BE1
:10286C000400AD0B2DE9F347534BD3F80403C0B26E
:10287C0040F00040FFF79EFD051E1ADA4FF0A04312
:10288C00DFF83881D3F820250092C3F820250127E2
:10289C00009CA4B94FF00040FFF78CFD4FF0A04214
:1028AC00D2F820350093C2F82035002BEFD125F05B
:1028BC0000450124002D66D102B0BDE8F08794FAE2
:1028CC00A4F4B4FA84F4E00804F1080304F0070259
:1028DC0038F813901DF80030019407FA02F223EA3D
:1028EC0002030DF8003001A801F050FC019B03F528
:1028FC00E0734FEA990150F82360C9F3820A4B0741
:10290C00D146C6F3014623D520465146FFF70AFDB2
:10291C0001A8019401F03AFC019B03F5E073F6B2B7
:10292C0050F82330C3F301439E4207D100212046C7
:10293C0001F07FFC3146204601F07BFC01A801949C
:10294C0001F024FC019B07FA03F3C0F820359FE744
:10295C00022E0CD10321204601F06BFC0AF005037A
:10296C00012BEBD149462046FFF7DCFCE6E70221C0
:10297C00204601F05EFCBAF1030FF3D0032EDDD13B
:10298C00BAF1020FEDE795FAA5F3B3FA83F304FA63
:10299C0003F29B0003F1804303F5C04325EA0205D3
:1029AC00D3F81005D3F81015C0F30420C1F301417E
:1029BC00FFF7B8FC7EE700BF00600040300000204D
:1029CC0001460148FFF748BB8C00002008B5144BAA
:1029DC00A8220021184601F05BFD03220261114977
:1029EC004261114A8161C2614FF48062026200222D
:1029FC0082624262C26201660C49416610218166A4
:102A0C0003460267C2664267BFF35F8F084911F83D
:102A1C00010D98540132102AF9D1BFF35F8F08BD14
:102A2C007C020020A24800006C0300205C03002004
:102A3C00BB48000038B503464FF02002EFF3118578
:102A4C0082F31288BFF36F8F01F02AFD064A1458E7
:102A5C00184601F06DFB85F31188BFF36F8F20468C
:102A6C00BDE83840FEF750B908000000104B70B5B7
:102A7C0053F82040013053F82060A64200D870BDB6
:102A8C00D4E9003595B153B12846984738B10028A0
:102A9C00B8BF4042EB68FF28A8BFFF201870EA6857
:102AAC00537843F0010353700834E6E79847FBE78B
:102ABC00BC47000008B50A4B012203201A70FFF72F
:102ACC00D5FF00F00FFE0420FFF7D0FF00F00CF94B
:102ADC00FDF768FC034A137B23F00103137308BD55
:102AEC006C0700204001002008B50348034A002170
:102AFC00121A01F0C4FB08BDA000002070070020D2
:102B0C0070B5002386B00122CDE90423194E1A4D6D
:102B1C0001930F22CDE902321849142303FB00550F
:102B2C0006EBC01604464FF4C070154B00954FF4DD
:102B3C00A07200FB0411304600F096F8737B114A2A
:102B4C00EE6023F0040373734FF4046304FB03334C
:102B5C0013446B600C4B2C74BFF35B8F53E8001F5A
:102B6C00013143E80012002AF8D1BFF35B8F06B0A5
:102B7C0070BD00BFC000002028030020C00F002043
:102B8C009F420000800700202403002080B5002015
:102B9C00A6B0FFF76BFF2D4B83F308882C4D2D4E01
:102BAC006B692D4F43F400736B610024E02385F8AF
:102BBC002230EC772C766C76AC7685F820406B6AFC
:102BCC0043F4E0236B6285F82340FDF7FFFFFDF72C
:102BDC004BFD4FF0FF33AB62EB62FEF743F9FEF7B0
:102BEC00A9F840F20113ADF8243006ABB360CDE97F
:102BFC001E44219401F037FB0120FFF737FF022020
:102C0C00164DFFF733FF00F009FB154B756105936B
:102C1C00012314490094CDE903434FF480623B46F1
:102C2C00CDE90144284600F01FF86A7B064622F0E5
:102C3C00040228466A7301F072FB2046FFF760FF1E
:102C4C003A4631462846FDF711FE00BFC00F002062
:102C5C0000ED00E028030020C12A00004001002004
:102C6C00BC480000401100202DE9F04385B007322C
:102C7C00994600F1580322F00706C0E91633109B61
:102C8C00037306F140050423002743730D440F9B87
:102C9C0083738846C0E9067729468760C773044664
:102CAC00FDF714FE08F140030730C4E9183620F094
:102CBC0007000E9BA06602930D9B01932D1A0C9B93
:102CCC0000932A464B4641462046FDF79DFD054B99
:102CDC0067659B6803B1DB6EE366284605B0BDE80B
:102CEC00F08300BF280300202DE9F043294C2A4D26
:102CFC0087B02646AE4204F12C040FD300F05EFAE6
:102D0C00244CDFF898904FF4004640F2E737AC4281
:102D1C0020D307B0BDE8F04300F064BA54F8043C8B
:102D2C00059354F80C3C049354F8103C039354F85A
:102D3C00143C029354F8183C019354F81C3C009337
:102D4C0054E9092354E90B01FFF78EFF54F82C3C8E
:102D5C005E65CEE7636A5A1C0DD023EAE37300214B
:102D6C003846C3FB060151EAC333D4F8008004D1C2
:102D7C00404600F0D3F92C34C9E74FF47A720023A3
:102D8C00FDF7A6F902460B4608F11800494600F07B
:102D9C00AFFBF0E774460000744600008F43000060
:102DAC0038B504464FF02003EFF3118583F31288F6
:102DBC00BFF36F8F01F0E9FA48B10022826701F08E
:102DCC00AEFA29460748BDE8384000F095B9D4E979
:102DDC0002329A4218BF0133A36085F31188BFF306
:102DEC006F8F38BD6D07002013B54FF02004EFF343
:102DFC00118184F31288BFF36F8F846844B1013C56
:102E0C00846081F31188BFF36F8F002002B010BD76
:102E1C0052EA030406D181F31188BFF36F8F6FF070
:102E2C000F00F3E7CDE900230246024800F046F913
:102E3C00ECE700BF6D070020C3897F2B12D80A4B2B
:102E4C001B6863B1094B90F90E201B689A4209DB91
:102E5C00437BDB0606D1064BC31A18BF012303F0D4
:102E6C00010070470023FAE7500300204C030020B8
:102E7C00C0000020044BC01A044BC0105843044B34
:102E8C0001221A54704700BFC0010020ABAAAAAAA5
:102E9C006D07002070B50E4B0E4C1E7C06EB4603E6
:102EAC0004EBC3040546204601F0A1FA0A4B0022AC
:102EBC0028469A55FFF7C0FF48B1084B08491A68D5
:102ECC00013A2046D317BDE8704000F011BB70BD2D
:102EDC0028030020C00100206D07002050030020B3
:102EEC00812E000038B50D4D2B4653F8184F9C42DF
:102EFC0000D004B9EC68AB6838B95A7BD20604D15F
:102F0C00A26912B9DA897F2A05D89C4202D02046E0
:102F1C00FFF7C0FF23466B6138BD00BF28030020BC
:102F2C0070B590F90D20437B002A014604DA03F0BA
:102F3C007F03437301F0B9F94B7B154A63F07F03B0
:102F4C0010464B7350F8183FD469834208BF0023D6
:102F5C0023B9C1E900042160D1610CE091F90E5054
:102F6C0093F90E60B5420ED0AE420CDD5868C1E943
:102F7C000030016059609068431A5842BDE87040B7
:102F8C005841FFF7AFBF9C42E3D01B68E0E700BF9E
:102F9C002803002070B490F90D30427B002B29DB04
:102FAC00D30627D183692BBB134962F07F0242738E
:102FBC000A4652F8184F944218BF2346CC6923B9DD
:102FCC00C0E900242060C8610CE090F90E5093F920
:102FDC000E60B5420AD0AE4208DD5A68C0E9003234
:102FEC001060586070BC0020FFF77CBFA342E7D094
:102FFC001B68E4E770BC70472803002008B590F903
:10300C000D20437B002A014604DA03F07F0343734F
:10301C0001F04BF9044B9868431A58425841BDE8EB
:10302C000840FFF75FBF00BF2803002070B51546AE
:10303C001C46064601F04BF9B4F1FF3F08BFB5F151
:10304C00FF3F08D02A46234606F118000249BDE886
:10305C00704000F04DBA70BD8F43000038B54FF092
:10306C002003EFF3118583F31288BFF36F8F104B9E
:10307C00104A9C681068A04206D1FFF70BFF85F33D
:10308C001188BFF36F8F38BD00211B7C11600A4A79
:10309C00D35C002BF3D02046FFF7CEFE0028EED0F9
:1030AC00637BDB0602D12046FFF73AFF2046E4E7BC
:1030BC0028030020480300206D07002070B50C4841
:1030CC000C4D86682E600C461146DDE904234FF04A
:1030DC002006EFF3118586F31288BFF36F8F80689B
:1030EC00FFF7A4FF2046BDE87040FDF731BB00BFE1
:1030FC00280300204803002049B9EFF3058030B9BC
:10310C00054B5A699B689A4201D0FDF721BB81F3AC
:10311C001188BFF36F8F70472803002010B54FF054
:10312C002002EFF3118482F31288BFF36F8F427B7E
:10313C00510704D484F31188BFF36F8F10BD22F0B4
:10314C0004024273FFF726FF21460248BDE81040F7
:10315C00FFF7D2BF6E07002070B50446183001F09F
:10316C0046F94FF02003EFF3118683F31288BFF377
:10317C006F8F94F90D20637B002A05DA03F07F032F
:10318C006373204601F091F80B4D637BA86843F004
:10319C0010036373031B58425841FFF7A3FE86F3D9
:1031AC001188BFF36F8FAB68A34203D1BDE87040A9
:1031BC0001F013B970BD00BF280300204FF02003AD
:1031CC00EFF3118183F31288BFF36F8F044B9A686E
:1031DC00D37B013BD37381F31188BFF36F8F70479F
:1031EC002803002010B54FF02003EFF3118483F374
:1031FC001288BFF36F8F084B9A68D37B0133D3735C
:10320C000020FFF76FFE84F31188BFF36F8FBDE8CA
:10321C00104001F0E2B800BF28030020024B03F17C
:10322C001802C3E90622704728030020F8B54FF0B6
:10323C002003EFF3118583F31288BFF36F8F1949C5
:10324C008868437B03F07F03437301F02EF88B688F
:10325C005A7B084662F07F025A7350F8182FCC69DB
:10326C00824208BF002222B9C3E900042360CB616B
:10327C000CE093F90E6092F90E70BE420ED0B7427C
:10328C000CDD5168C3E900210B6053600120FFF78E
:10329C0029FE2846BDE8F840FDF75ABAA242E3D011
:1032AC001268E0E72803002050EA01032DE9F04101
:1032BC0005460E4603D1FFF7B9FF00202CE0831C16
:1032CC0071F1FF332ADB01F0A8F82C184FF0200322
:1032DC00EFF3118883F31288BFF36F8F114F124BEA
:1032EC00B8681860FFF78AFEB86810492A4633465A
:1032FC00183000F0FDF8BA68537B43F01003537399
:10330C004046FDF725FA01F088F8201A63EB030319
:10331C00012873F10003D0DBBDE8F0816FF00104EC
:10332C00241AD3E728030020480300208F43000011
:10333C00B1F1FF3F08BFB0F1FF3F08B506D1084B14
:10334C009868FFF709FF4FF0FF3008BDFFF7ACFF9F
:10335C004FF47A7380FB0303C00B40EA4340F4E75D
:10336C0028030020014B9868704700BF28030020F9
:10337C002DE9F04104464FF02003EFF3118683F35F
:10338C001288BFF36F8F037BD9070BD586F3118897
:10339C00BFF36F8F404080F311884FF0040002DFC1
:1033AC00BDE8F081437B1A0704D586F31188BFF37F
:1033BC006F8FF5E723F0200242F00801D20920D1EB
:1033CC004173A36813B1204600F077FF04F1180095
:1033DC0001F00DF804F158074FF00008A56DBD423F
:1033EC0000D0B5B90120FFF77DFD104B9B68A342BF
:1033FC00DBD1EFF30583002BD7D13046FDF7A8F9CD
:10340C00D3E703F05F0343F00803437300F04DFF71
:10341C00D7E7284600F051FF05F1180000F0E7FF50
:10342C00C5F878802846FFF7B5FDD7E728030020BC
:10343C0008B50648064A0749121A00F022FFBDE8F3
:10344C000840054A0549064800F01BBF0000002053
:10345C009E000020FC48000000000000FC4800001A
:10346C0000000020034B1B680BB9FEF793BC002037
:10347C00704700BF5403002010B50E4B1C689C42D3
:10348C0004D1FFF7EFFF6FF0004010BDFFF7EAFF2C
:10349C00002CF8D0D4E904321B1A62EBE072B3F1C1
:1034AC00004F72F10001EEDA002AACBF1846002082
:1034BC00EBE700BF9000002030B570B10B4B5B68A0
:1034CC0098420AD0036843B1D3E90421D0E90445FA
:1034DC00121941EB0501C3E90421D0E90032136054
:1034EC005A600023C0E9003330BD00BF90000020BB
:1034FC00B3F1FF3F08BFB2F1FF3FF8B504461D46DC
:10350C0016465CD081604FF02003EFF3118783F3F4
:10351C001288BFF36F8F013275F1FF3324DA2D4916
:10352C00D1E900206FF001039B1A4FF0FF3262EBE0
:10353C0000009E1B60EB0500012E70F1000301DA08
:10354C0001260020C4E90460234ED6F800C075683B
:10355C00B44508BF4FF0000CBCF1000F0DD1C4E90D
:10356C0000652C6074601CE0FFF77CFF013645F1B0
:10357C000005361845EBE070E4E7DCE90420D4E9FB
:10358C000431934271EB000E1ADAD21ADCF80430D3
:10359C0060EB0100CCE90420C4E900C31C60CCF84A
:1035AC0004403368B34206D09C4204D1FFF764FF59
:1035BC000021FEF7BBFB87F31188BFF36F8FF8BDBB
:1035CC009B1A61EB0001AC45C4E90431C7D0DCF8AF
:1035DC0000C0C1E7D8010020900000202DE9F84F71
:1035EC004FF02003EFF3118C83F31288BFF36F8F2E
:1035FC00DFF8B0A0DFF8B0902C4FC9F80000DAF873
:10360C0000000024504508BF00200025D7E9002108
:10361C00D9F80030E04680B3D0E9046C4FEAE37E81
:10362C00B3427EEB0C0B05DAF61A6CEB0E04C0E918
:10363C00046422E0B21841EBE671C0E90445C7E925
:10364C000021FFF739FF88F31188BFF36F8F836870
:10365C0098474FF02003EFF3118883F31288BFF3E0
:10366C006F8FD9F80030DAF800009B1B5045C44628
:10367C00C9F80030CAD1D7E900219A1841EBE3739D
:10368C000024C7E90023C9F80040FFF7F5FE2146E6
:10369C00FEF74CFB88F31188BFF36F8FBDE8F84F32
:1036AC00FFF7DCBC9000002054030020D801002060
:1036BC0010B54FF02003EFF3118483F31288BFF39E
:1036CC006F8FFFF7CFFE064A0346D2E900011818A8
:1036DC0041EBE37184F31188BFF36F8F10BD00BF12
:1036EC00D8010020014800F04FBA00BFC4480000C8
:1036FC002DE9F04F8BB04368019383789F07824686
:10370C00144640F10981002591F80080B8F1000FB2
:10371C0000F00481B8F1250F0BD04B1C029301353E
:10372C00019B5146404698470028C0F2F58002990B
:10373C00EAE791F801808B1CB8F1250F0293EED0CB
:10374C00002399461F461F2F39D8A8F12002102AB2
:10375C000AD8DFE802F02B09093109090921090906
:10376C000929092E09091F00A8F13002092A32D9AA
:10377C00B8F12A0F35D1780654F8042B00F181806A
:10378C00002AA7BF47F020079146C2F1000947F075
:10379C00280701E047F00107029A12F8018B029208
:1037AC00B8F1000FCFD132E047F0020747F0040721
:1037BC00F2E747F00807EFE747F01007ECE77F2F39
:1037CC0018D8A8F13002092AD2D87E0603D50A21CE
:1037DC0001FB0323E0E70A2101FB092947F020073D
:1037EC00DAE7B8F12E0F05D1790600F1978047F092
:1037FC004007D1E7B8F16C0F32D02AD8B8F1680F76
:10380C0035D0B8F16A0F39D0B8F14C0F36D0002B47
:10381C0048F02002B8BF27F04007A2F16501BCBFF9
:10382C00BFB20023022901D9612A2CD1073424F01C
:10383C0007049A4E08344FF00708380763D506EB97
:10384C00080B37465F4560D1AE1B3744A9EB08091E
:10385C0054E1B8F1740F9FD0B8F17A0F9CD0D6E731
:10386C003A0648BF47F4007747F0800794E7FE0517
:10387C0048BF47F4007747F480778DE747F420770B
:10388C008AE7134688E7A8F16301122900F2CF807A
:10389C00DFE811F013004800CD00CD00CD00CD00C5
:1038AC004800CD00CD00CD00CD00CD00DF00C7001D
:1038BC00CD00CD001B00CD00960054F8043B8DF8D4
:1038CC001C304FF0010807AEB7E754F8046B744A8C
:1038DC00002E08BF164617F0400F14BF19464FF0C4
:1038EC00FF31304600F09EFD8046A6E7019B514615
:1038FC002020984700280FDB013FB845F6D34D44F4
:10390C00ED1BB9469BE74F46F7E717F8010B019BF8
:10391C0051469847002895DA4FF0FF3528460BB0F2
:10392C00BDE8F08F390637D5BA0545BF073424F00A
:10393C00070454F8040B54F8080B27F01006002861
:10394C00B6B232DA404246F48066039307AF0A22DD
:10395C00394600F073FD7206039BA0EB07074BD5AD
:10396C0026F00101BB4289B240F38A80B8F1000F06
:10397C0000F0828016F01002039240F083809B4688
:10398C000E4640F2064116EA010203921EBF0022C7
:10399C000BF1010B039238E0FE0554F8040BCCD567
:1039AC00B9054CBF40B200B2C7E7CED17A06CCD530
:1039BC00002BCAD127F01107BEB21F469B46E0E789
:1039CC0027F01007BFB20A223E0646D5B80545BF00
:1039DC00073424F0070454F8040B54F8080B00289F
:1039EC0044D127F016067906B6B242D5002B40D149
:1039FC0027F01707BEB21F4616F0100203924AD0EA
:103A0C00B8F1000F45D107F1010B31075CD4F20777
:103A1C0005D5D94575DDA9EB0B02D319CB465A4612
:103A2C004CE047F0100710224FF07808CCE7782ACA
:103A3C0006D1B8F1580F14BF10224FF40472C3E72B
:103A4C00019B5146252098470028FFF665AF0235AB
:103A5C0066E608224FF00008B6E7F90554F8040BA7
:103A6C00BDD5BE054CBFC0B280B2B8E727F0060783
:103A7C00BEB2039307AF6BE726F01106B6B29DE713
:103A8C000E46B9E738460E461F4607F1020B0746AD
:103A9C00BBE73846F9E7BB4673E700BFF3480000C5
:103AAC00EC480000CDE904325146019B2020984798
:103ABC000028FFF631AF059A049B01329145F1DCE9
:103ACC00A5EB0B018D189346039A32B30393514621
:103ADC00019B302098470028FFF61EAF039BB8F1DE
:103AEC00000F10D101355E19711B8F4227DB3E464A
:103AFC000DF11C0866BB2F44A9EB0B093D46B944DC
:103B0C0038E03B468BE70393023551464046019B18
:103B1C0098470028039BE6DAFEE640F206410E4287
:103B2C00E1D016F0020F14BF2B20202016F4806F6A
:103B3C00039305F10105514618BF2D20E7E7019BC2
:103B4C00514630209847002805F10105CCDAE3E610
:103B5C00013E019B18F80600514698470028C9DA27
:103B6C00DAE6019B514620209847002805F1010513
:103B7C00FFF6D2AEA9EB0503002BF2DCD7E500BFB4
:103B8C0008447047002070470FB407B504A951F8DA
:103B9C00040B0191FCF726FC03B05DF804EB04B0B8
:103BAC00704700EBC100408840087047F8B50346E9
:103BBC00FFF7F7FFB0FA80F0C0F11F0003EB800CA9
:103BCC00CA00DCF81060171D0C4606328DB256B9CF
:103BDC00012101FA00F0D9680143D960CCF81040FA
:103BEC00DD539D52F8BDF1000431585AD85303EB04
:103BFC00C0009E52C5805D52F4E7043A2DE9F041B5
:103C0C00CC1D114424F0070421F007010E1BF7080A
:103C1C00B7FA87F2C2F12405AD004FF00008073562
:103C2C00C2F12002ED0804604146A760C4F80C8084
:103C3C00920004F1100000F02BFC6B0043F0010328
:103C4C00638004EBC5027B1B5900A4F800805180F3
:103C5C00A21924F83550A2F80280A35304EBC70331
:103C6C0029465A8842F001025A802046BDE8F041AC
:103C7C00FFF79CBF038B13F0070305D10368002BE0
:103C8C000CBF002003207047022B05D1408BB0FAEB
:103C9C0080F0400980007047012B05D10368002B90
:103CAC000CBF0020052070470020704710B50C4653
:103CBC0000B111B96FF0150010BD081D00F095F89A
:103CCC000028F9D1A368032BF6D9F3E72DE9F041CD
:103CDC000D4607461946281D90461E4600F096F8DC
:103CEC00044638B13346424629463846A446BDE818
:103CFC00F0416047BDE8F08110B44FF02004EFF3C1
:103D0C00118284F31288BFF36F8F416110BC0121C3
:103D1C00FCF79ABB38B50C46054658B151B10B6847
:103D2C0043B14B6833B11C22002100F0B1FB2C6174
:103D3C00002038BD6FF01500FBE770B505460E4648
:103D4C00FFF7B4FF041E15DB4FF02003EFF31182D5
:103D5C0083F31288BFF36F8F6B8B2C8B4FF6FF7135
:103D6C008B4204F0070407D182F31188BFF36F8FE5
:103D7C006FF00A04204670BD022C0CD101336B830A
:103D8C0082F31188BFF36F8F0023224631462846F9
:103D9C00FFF79CFFEEE7062C14D8DFE804F00413C1
:103DAC001313041A0400002333606B683BB9C5E994
:103DBC000066ACB902212846FCF746FBDAE71E6028
:103DCC006E60F6E782F31188BFF36F8F6FF0040417
:103DDC00D0E782F31188BFF36F8F6FF08504C9E7CA
:103DEC0082F31188BFF36F8FC4E7034658B1426862
:103DFC0002F00302012A03D0032A04D1026812B193
:103E0C000020986070476FF0150070474268816021
:103E1C0002F00302032A4FF0000203460CBF0068B5
:103E2C0010465A6070477047FEF704BE01460068A2
:103E3C00FEF700BE00210120FFF7F6BF08B5FCF726
:103E4C0067FCBDE80840FCF76FBD08B5FDF73AF814
:103E5C00002008BD0369C9B20C2201FB0233186CA7
:103E6C0000F0070070474FF02003EFF3118283F34B
:103E7C001288BFF36F8F036803F0C00343F0020393
:103E8C00036082F31188BFF36F8F704770B5C9B2AE
:103E9C0003694FF02004EFF3118584F31288BFF30C
:103EAC006F8F0C2606FB0134246C14F0C00408D070
:103EBC00A24206D085F31188BFF36F8F4FF0FF300D
:103ECC0070BD06FB013301221A6485F31188BFF320
:103EDC006F8F436803EBC1035B6898470020EFE7E3
:103EEC008022FFF7D3BFF8B5069F0469C9B24FF023
:103EFC002005EFF3118685F31288BFF36F8F0C2525
:103F0C0005FB0144256C05F0070CBCF1010F0CD12D
:103F1C00276486F31188BFF36F8FC4E90E234368BF
:103F2C0053F8313098470020F8BD05F0C005AF427A
:103F3C0086F31188BFF36F8F0CBF6FF077004FF0D3
:103F4C00FF30F1E713B580240094FFF7CCFF02B0EB
:103F5C0010BD10B40069CBB21C2403FB040000217B
:103F6C0010BC1047002000F00FB91046FEF718BF28
:103F7C0043685B68D3F810350B60002070474368CA
:103F8C005B6802EA010021EA0201C3F80805C3F8E4
:103F9C000C150020704743685B680020C3F80815B7
:103FAC00704743685B680020C3F80C157047436882
:103FBC005A68D2F8043521EA03000B40C2F8080510
:103FCC00C2F80C350020704710B503695868F8B179
:103FDC00884219D19C6808685860A14200D1986049
:103FEC00002008602AB15A680A609A68596002B9C0
:103FFC009960002010E0814206D108682060986822
:10400C008142EDD19C60EBE7044600680028F2D1B8
:10401C00002AE8D16FF0150010BD30B5436813606D
:10402C00057A446804EBC504A34202D36FF0010087
:10403C0030BD5C798C4201D00833F0E70020F7E703
:10404C0002690B46D2E9010183E8030000207047A6
:10405C0043681B68D3F88004C3F880047047436836
:10406C0002691B68D3F8100150B152690020127814
:10407C000A70C3F81001D3F8102101221A6070479E
:10408C004FF0FF30704702680346D2F8580140B930
:10409C005B689B0706D4D2F82001003818BF0120BA
:1040AC0070470120704742681368D3F80413C905A0
:1040BC0018D5D3F82011A9B14FF02000EFF31181DE
:1040CC0080F31288BFF36F8FD3F8200130B100203A
:1040DC00C3F82001D3F820010120D86081F31188A6
:1040EC00BFF36F8F5268D20615D54FF02001EFF356
:1040FC00118281F31288BFF36F8FD3F8581111B16D
:10410C000021C3F800154FF48001C3F8081382F3A3
:10411C001188BFF36F8F704700F150039B009BB267
:10412C0003F1804303F5883300221A601B68704743
:10413C0008B50020FCF792FD4FF08053D3F8300106
:10414C00421C04BF4FF0704393F8E00F831F58429A
:10415C0058417047004700F082B8C00000F1804021
:10416C0000F5F830C0F81015C0F81425704708B5E4
:10417C000020FCF7A7FA08B9FCF796FA4FF0804339
:10418C000022C3F8182508BDFDF7B0BF036803F083
:10419C001F025B0902600CBF4FF0A040002070476B
:1041AC00F7B5019001A8DDE9084716461D46FFF753
:1041BC00EDFF019BB6F1000C18BF4FF0010C00EBAA
:1041CC0083000B1E18BF0123002D43EA4C0314BFC0
:1041DC004FF00C0C4FF0000C002C43EA0C0314BFF6
:1041EC004FF4E06C4FF0000C002F43EA0C03D0F8B6
:1041FC00002714BF4FF4403C4FF0000C43EA0C0373
:10420C0022EA030301B109780EB13678760019431E
:10421C000DB12D78AD0031430CB124782402294323
:10422C000FB13F783F040C433C43C0F8004703B048
:10423C00F0BD1FB50DF10F03019300238DF80F1086
:10424C0000931A461946FFF7ABFF05B05DF804FB67
:10425C00FEF7BCBB08B5FFF7FBFF002008BD08B19B
:10426C00FCF762BE7047704740B1C368587810F0D5
:10427C0001001EBF1878B0FA80F04009704700F0BA
:10428C0007B900F0F7B8EFF30580003818BF01202C
:10429C00704708B54FF02002EFF3118382F31288B8
:1042AC00BFF36F8FFCF7E6F9F4E7D0E90032136047
:1042BC005A600023C0E90033704708B5FFF7F5FFDB
:1042CC00437B23F0020343730023836008BD38B59E
:1042DC0004460D46FEF792FE637B43F002036373C4
:1042EC00E5B1A5602B689D4209D16B68C4E9005308
:1042FC001C606C6012E06A689342F6D01B68002B5D
:10430C00F3D094F90E2093F90E108A42F3D0914217
:10431C00F1DD5A68C4E9003214605C6038BD10B538
:10432C004FF02003EFF3118483F31288BFF36F8FE8
:10433C00FEF730FE84F31188BFF36F8F10BD38B5D4
:10434C0004464FF02003EFF3118583F31288BFF37B
:10435C006F8F437B13F0280F0BD183680BB1FFF7E2
:10436C00ACFF637B51B903F0FB0363732046FEF78C
:10437C0011FE85F31188BFF36F8F38BD03F0EB038B
:10438C00F3E701211838FFF7DABF38B54FF02003F7
:10439C00EFF3118583F31288BFF36F8F0468A0428B
:1043AC000DD034B12046FFF788FF04F1180000F05F
:1043BC001EF885F31188BFF36F8F204638BD00249B
:1043CC00F7E7034620B9EFF305820AB9FCF7C0B949
:1043DC0083F31188BFF36F8F70474FF02003EFF317
:1043EC00118083F31288BFF36F8FFFF7EABF10B50C
:1043FC004FF02002EFF3118482F31288BFF36F8F1A
:10440C0003683BB1FFF758F8002084F31188BFF321
:10441C006F8F10BD6FF01500F7E708B5FFF748F97F
:10442C0008BD704710B5024601448A42134603D0BA
:10443C001C780132002CF8D1181A10BD930570B5F8
:10444C0048BF22F40072044608464CBF07212721BE
:10445C00B4FBF2F502FB1543DBB2092B88BF5B18EA
:10446C00264688BFDBB23033B24200F8013B2C4603
:10447C00EED970BD0A44914200F1FF3300D1704770
:10448C0010B511F8014B03F8014F9142F9D110BD51
:10449C0002440346934200D1704703F8011BF9E72D
:0C44AC000148006870470000E00100209B
:0844B80058BCFF7F0100000069
:1044C0001D0F000000000000F10F0000004500007B
:1044D0006142000000000000791300001445000054
:1044E000C117000028450000511200000000000024
:1044F000D51B000000000000F90E000000000000C5
:1045000019480000104700002047000098000020D4
:1045100008020020364800003C4700004C470000DD
:104520009A0000205C020020444800007047000010
:0C453000A44700009C00002014000020A4
:10453C008D2200006141000000000000413E00009F
:10454C0028450000B340000000000000413E000080
:10455C0000000000413E000000000000413E000051
:10456C00712800006141000000000000413E000085
:10457C0000000000413E000000000000413E000031
:10458C0000000000413E000000000000413E000021
:10459C0000000000413E000000000000413E000011
:1045AC0000000000413E000000000000413E000001
:1045BC0000000000413E000000000000651C0000EF
:1045CC0000000000413E000000000000413E0000E1
:1045DC0000000000413E000000000000413E0000D1
:1045EC0000000000413E000000000000413E0000C1
:1045FC0000000000413E000000000000413E0000B1
:10460C0000000000413E000000000000413E0000A0
:10461C0000000000413E000000000000413E000090
:10462C0000000000413E000000000000413E000080
:10463C0000000000413E000000000000413E000070
:10464C0000000000413E000000000000413E000060
:10465C0000000000413E000000000000413E000050
:08466C0000000000413E0000C7
:1046740082480000000000008D4800000000000097
:104684009948000000000000F1470000000000000D
:1046940028480000000000006248000000000000FC
:1046A4000248000000000000C148000000000000B3
:1046B40015480000000000005248000000000000FF
:0C46C400FFFFFFFFFFFFFFFFFFFFFFFFF6
:1046D0000338FDD8704700000000002000000000F3
:1046E00000000B0602000000EC4600000000000085
:1046F0000648000024000207000000200E480000C9
:104700001E000B11790F0000490F0000000000008F
:1047100099100000BD0F000031110000713F000032
:10472000FD100000ED3E0000513F000000000000C1
:10473000613E00000000000000000000FFFFFFFFDE
:10474000000000500000000000000000ED13000019
:104750007D3F00008B3F0000A33F0000AF3F000003
:10476000BB3F0000A1120000D53F00000000000088
:104770000020004002000000000000008047000010
:10478000002000408C47000001000000944700001A
:1047900004000000060000000800010005000200FF
:1047A000070003006B400000A91800005D400000F6
:1047B000651600004D400000F5FFFFFFC0440000FB
:1047C000C0440000F0440000F84400000045000030
:1047D000004500005468652073756D206F662025C4
:1047E0006420616E642025642069732025640A0DAD
:1047F0000063627072696E74665F7061636B61679B
:1048000065006D707500464C4153485F300053524F
:10481000414D5F3000736F6300636C6F636B4034B6
:104820003030303030303000636C6F636B5F636FFB
:104830006E74726F6C006770696F40353030303065
:104840003030300075617274403430303032303086
:104850003000756172745F6E7266785F7561727434
:104860006500666174616C5F6572726F7200000052
:104870000000010000000101000001010101000031
:1048800000004E5246585F434C4F434B004E524639
:10489000585F4750494F5445004E5246585F50505C
:1048A00049005465726D696E616C00000000000083
:1048B0000054545220524547474553006D61696E7C
:1048C000006F73002A2A2A20426F6F74696E672076
:1048D0006E524620436F6E6E6563742053444B20C6
:1048E00076322E352E30202A2A2A0A00286E756C40
:0C48F0006C29002A666C6F61742A0000BD
:1048FC00913B000000000000573E0000000000004B
:10490C0000000000000000008025000000010300F2
:10491C00000000005B0300205A0300200000000090
:10492C00000000000000000000000000000000007B
:10493C00000000000000000000000000000000006B
:10494C00000000000000000000000000000000005B
:10495C00000000000000000000000000000000004B
:10496C00000000000000000000000000000000003B
:10497C00FF0000000000000000000000FFFF0F001F
:08498C009000002090000020C3
:064994000000000000001D
:04499A0015E015E02F
:0400000300000C15D8
:00000001FF
